:020000040800F2
:10000000E00700208901000811050008D504000858
:100010000D050008570200086913000800000000E1
:100020000000000000000000000000009B0100082C
:1000300025030008000000009F010008A10100083E
:10004000A3010008A3010008A3010008A301000800
:10005000A3010008A3010008A3010008A3010008F0
:10006000A3010008A3010008A3010008A3010008E0
:10007000A3010008A3010008A3010008A3010008D0
:10008000A3010008A3010008A3010008A3010008C0
:10009000A3010008A3010008A3010008A3010008B0
:1000A000A3010008A3010008A3010008A3010008A0
:1000B000A3010008ED0B0008150C0008A3010008BF
:1000C000A3010008A3010008A3010008A301000880
:1000D000A3010008B5100008A3010008A30100084F
:1000E000A3010008A3010008A301000800F002F822
:1000F00000F03AF80AA090E8000C82448344AAF188
:100100000107DA4501D100F02FF8AFF2090EBAE885
:100110000F0013F0010F18BFFB1A43F0010318473B
:100120007019000090190000103A24BF78C878C1F7
:10013000FAD8520724BF30C830C144BF04680C60ED
:10014000704700000023002400250026103A28BF35
:1001500078C1FBD8520728BF30C148BF0B60704739
:100160001FB51FBD10B510BD00F031F81146FFF7E7
:10017000F7FF01F043F900F04FF803B4FFF7F2FF87
:1001800003BC00F057F800000948804709480047C1
:10019000FEE7FEE7FEE7FEE7FEE7FEE7FEE7FEE737
:1001A000FEE7FEE704480549054A064B7047000094
:1001B0008D0B0008ED000008E0010020E0070020A2
:1001C000E0030020E0030020704770477047754649
:1001D00000F02CF8AE4605006946534620F00700B3
:1001E000854618B020B5FFF7DDFFBDE820404FF091
:1001F00000064FF000074FF000084FF0000B21F011
:100200000701AC46ACE8C009ACE8C009ACE8C009DD
:10021000ACE8C0098D46704710B50446AFF30080C6
:100220002046BDE81040FFF7A8BF00000048704717
:100230007C01002001491820ABBEFEE72600020029
:10024000704710B500F048F900F0B0F900F0C8FEB2
:1002500001F086F810BD00BFFEE7000000B587B0D2
:100260000121082000F0CEF90121880300F0CAF92D
:100270000121084600F0C6F90121042000F0DEF853
:100280008020ADF8180004208DF81B0006A9224834
:1002900000F049F825208DF8040004208DF80500B1
:1002A00000208DF8060001208DF8070001A800F05D
:1002B00031F918208DF81B004020ADF818000320FC
:1002C0008DF81A0006A9144800F02DF81348029082
:1002D0000020ADF80C00ADF80E004FF48060ADF8D2
:1002E00010000020ADF814000420ADF8120002A99F
:1002F0000B4800F0C9FF012240F22551084800F0E8
:100300009EFF0121064800F08EFF2021044800F0E6
:1003100081FF07B000BD0000000C0140A086010075
:100320000038014070472DE9F041024600250026C3
:10033000002000230024002791F803C00CF00F05D3
:1003400091F803C00CF0100CBCF1000F03D091F831
:1003500002C04CEA050591F800C0BCF1000F31D095
:10036000146800202BE04FF0010C0CFA00F3B1F8F8
:1003700000C00CEA03069E4220D183004FF00F0C10
:100380000CFA03F7BC4305FA03FC4CEA040491F8A9
:1003900003C0BCF1280F06D14FF0010C0CFA00FC91
:1003A000C2F814C00AE091F803C0BCF1480F05D1AF
:1003B0004FF0010C0CFA00FCC2F810C0401C0828D9
:1003C000D1D31460B1F800C0BCF1FF0F34DD546824
:1003D00000202EE000F1080C4FF0010808FA0CF3A1
:1003E000B1F800C00CEA03069E4221D183004FF011
:1003F0000F0C0CFA03F7BC4305FA03FC4CEA0404A7
:1004000091F803C0BCF1280F05D100F1080C08FADF
:100410000CF8C2F8148091F803C0BCF1480F07D162
:1004200000F1080C4FF0010808FA0CF8C2F810802F
:10043000401C0828CED35460BDE8F081F0B50A46D0
:10044000002300240021002500F00046B6F1004FF3
:1004500002D11D4EF16901E01B4E7168C0F30345E6
:1004600083B200F44016B6F5401F08D121F0706148
:10047000154E766826F07066134F7E6012E000F429
:100480008016B6F5801F06D1032606FA05F4A143AF
:1004900041F0706106E0460D360103FA06F6B143FD
:1004A00041F0706122B1460D360103FA06F6314380
:1004B00000F00046B6F1004F02D1034EF16101E0B9
:1004C000014E7160F0BD00000000014041617047C5
:1004D0000161704700BFFEE708B50121042000F06C
:1004E00091F86020ADF8000010208DF80300032083
:1004F0008DF8020069460448FFF715FF60210248A5
:10050000FFF7E6FF08BD00000008014000BFFEE75E
:100510007047000070B5002100230F22C47804B397
:10052000154C246804F4E064C4F5E064210AC1F1C8
:100530000403CA40447804FA03F184781440214348
:1005400009010E4C0678A155047804F01F0501241A
:10055000AC4005786D11AD0005F1E025C5F800410E
:1005600009E0047804F01F050124AC40044D06782E
:10057000761145F8264070BD0CED00E000E400E087
:1005800080E100E002490143024A11607047000027
:100590000000FA050CED00E0024A0A400243024B5B
:1005A0001A60704780FFFF1F08ED00E008B50121C9
:1005B000042000F027F84FF48050ADF80000102020
:1005C0008DF8030003208DF8020069460448FFF708
:1005D000AAFE4FF480510248FFF778FF08BD0000E3
:1005E0000008014029B1064AD2690243044BDA618E
:1005F00004E0034AD2698243014BDA61704700008C
:100600000010024029B1064A92690243044B9A61E4
:1006100004E0034A92698243014B9A6170470000EB
:100620000010024030B500210022002400232D4D8F
:100630006D6805F00C0121B1042905D0082923D1EA
:1006400005E0294D056022E0274D05601FE0254D9E
:100650006D6805F47012234D6D6805F48034022531
:1006600005EB92421CB9214D554305600BE01D4D31
:100670006D6805F400351DB11C4D5543056002E061
:10068000194D5543056002E0174D056000BF00BFDE
:10069000144D6D6805F0F0010909154D6B5C056896
:1006A000DD4045600F4D6D6805F4E061090A104DAD
:1006B0006B5C4568DD4085600A4D6D6805F46051EE
:1006C000C90A0B4D6B5C4568DD40C560054D6D6822
:1006D00005F44041890B074D6B5CC568B5FBF3F52C
:1006E000056130BD0010024000127A0000093D0093
:1006F00014000020240000202DE9FE4305460024BC
:1007000067E1B648005D00286AD1B54931F9141097
:10071000B44A32F91420881A00F0E6FF8046B24944
:1007200031F81410AF4A32F91420881A00F0DCFFB7
:100730008146414600F0DAFE0746AC4901F034F844
:10074000064600F095FF00B2002801DA002043E0E1
:10075000A34931F91410A34A32F91420881A00F081
:10076000C3FF8046A04931F814109E4A32F9142084
:10077000881A00F0B9FF8146414600F0B7FE0746EF
:100780009A4901F011F8064600F072FF00B2B0F588
:100790007A7F02DD4FF47A701EE0914931F914102E
:1007A000904A32F91420881A00F09EFF80468E4944
:1007B00031F814108B4A32F91420881A00F094FF93
:1007C0008146414600F092FE0746884900F0ECFF62
:1007D000064600F04DFF00B2854921F814006BE099
:1007E0007F4931F914107F4A32F91420881A00F039
:1007F0007BFF80467C4931F814107A4A32F9142084
:10080000881A00F071FF8146414600F06FFE0746EE
:10081000764900F0C9FF064600F02AFF00B2002822
:1008200001DA002043E06E4931F914106D4A32F9C3
:100830001420881A00F058FF80466B4931F81410D4
:10084000684A32F91420881A00F04EFF814641466A
:1008500000F04CFE0746654900F0A6FF064600F092
:1008600007FF00B2B0F57A7F02DD4FF47A701EE028
:100870005B4931F914105B4A32F91420881A00F0F0
:1008800033FF8046584931F81410564A32F9142083
:10089000881A00F029FF8146414600F027FE0646EF
:1008A000524900F081FF074600F0E2FE00B24042EC
:1008B00000B24F4921F814004E49284600F074FF59
:1008C0004D4908603DF9140000F00EFF80464B488A
:1008D00050F82410404601F065F80746002101F069
:1008E0002FF80BD23DF9140000F0FEFE07464348F6
:1008F00050F82410384601F055F80CE03DF914008A
:1009000000F0F2FE07463D4850F82410384601F04A
:1009100049F880F000400646394900F011FF1CD22A
:10092000334931F9140000F0DFFE8046334850F8B7
:100930002410404601F036F806462F48016830463C
:1009400000F032FF07462D4850F82410384600F0DA
:100950005FFD2A4941F8240020E0254931F91400BF
:1009600000F0C2FE8146254850F82410484601F0A8
:1009700019F80646204801684FF07C5000F014FF3B
:100980008046314600F010FF07461C4850F82410FE
:10099000384600F03DFD194941F82400194A52F843
:1009A0002410164A52F8240000F0FCFF164941F8C2
:1009B0002400124850F82400124941F824000C4940
:1009C00031F9140000F090FE104941F82400601C39
:1009D000C4B2062CFFF695AEBDE8FE83620000208F
:1009E0004A00002056000020DC00002000007A446D
:1009F000E800002034337B42680000200C01002016
:100A00000000C842240100203C010020F400002026
:100A10000348006880F0400001490860704700000A
:100A20000C08014010B500F001F810BD0CB5002015
:100A3000019000903348006840F4803031490860EC
:100A400000BF3048006800F4003000900198401C5E
:100A50000190009818B90198B0F5A06FF1D129481C
:100A6000006800F4003010B10120009001E0002087
:100A700000900098012843D12348006840F01000FE
:100A8000214908600846006820F003000860084615
:100A9000006840F0020008601A4840681949486040
:100AA0000846406848600846406840F480604860F6
:100AB0000846406820F47C1048600846406840F4CE
:100AC000E81048600846006840F08070086000BF89
:100AD0000C48006800F000700028F9D00948406810
:100AE00020F00300074948600846406840F00200D3
:100AF000486000BF0348406800F00C000828F9D1A6
:100B00000CBD000000100240002002403EB504462B
:100B1000601E80B2ADF804004720ADF80000002050
:100B2000ADF80600ADF802006946064800F068FA24
:100B300001221146034800F049FA0121014800F062
:100B400028FA3EBD0008004010B500214FF00060BB
:100B5000FFF722FD4FF44070FFF714FD00F006FC94
:100B600010BD042808D14FF0E021096941F00401CB
:100B70004FF0E022116107E04FF0E021096921F018
:100B800004014FF0E02211617047000010B51348D6
:100B9000006840F0010011490860084640681049AB
:100BA00008400E494860084600680E4908400B4955
:100BB00008600846006820F4802008600846406805
:100BC00020F4FE0048604FF41F008860FFF72AFF02
:100BD0004FF000600449086010BD000000100240A2
:100BE0000000FFF8FFFFF6FE08ED00E010B5012160
:100BF000064800F0DAF940B10121044800F0C6F9D6
:100C000003480068401C0249086010BD0004004011
:100C10002C00002010B50121BB4800F0C6F90028C7
:100C200078D0BA480068401CB8490860B8490868DC
:100C30004FF07E5100F0ECFB044600F035FDB54965
:100C40000860B34948684FF07E5100F0E1FB04466C
:100C500000F02AFDAF494860AD4988684FF07E51E9
:100C600000F0D6FB044600F01FFDAA498860A849A1
:100C7000C8684FF07E5100F0CBFB044600F014FD35
:100C8000A449C860A24908694FF07E5100F0C0FB3A
:100C9000044600F009FD9F49086101204861652074
:100CA000886140F2DD50086048608860C860086173
:100CB000401E4861401C88619448006811287CD21D
:100CC000DFE800F07B091D293D485C677C879BA617
:100CD000BAC5D9E4EE004FF480518F48FFF7F6FB18
:100CE0004FF4C870FFF712FF8A4840688B490860CC
:100CF00008460068A0F5C87089490860FDE04FF417
:100D000080518548FFF7E4FB8549098888B2FFF7E1
:100D1000FDFEF2E0F2E04FF480517F48FFF7D6FB92
:100D20004FF4C870FFF7F2FE7A4800687B494860CC
:100D300008464068A0F5C87079494860DDE04FF486
:100D400080517548FFF7C4FB7549898888B2FFF761
:100D5000DDFED2E04FF480516F48FFF7B7FB4FF450
:100D6000C870FFF7D3FE6B48C0686C4988600846BE
:100D70008068A0F5C8706A498860BEE04FF4805171
:100D80006548FFF7A5FB6649098988B2FFF7BEFEF3
:100D9000B3E04FF480516048FFF798FB4FF4C87000
:100DA000FFF7B4FE5B4880685C49C8600846C068CD
:100DB000A0F5C8705A49C8609FE09DE04FF480518B
:100DC0005548FFF785FB5649898988B2FFF79EFE93
:100DD00093E04FF480515048FFF778FB4FF4C87010
:100DE000FFF794FE4B4800694C49086108460069CA
:100DF000A0F5C8704A4908617FE04FF48051464829
:100E0000FFF766FB4649098A88B2FFF77FFE74E068
:100E10004FF480514048FFF759FB4FF4C870FFF77B
:100E200075FE3C4840693D49486108464069A0F567
:100E3000C8703B49486160E04FF480513648FFF785
:100E400047FB3749898A88B2FFF760FE55E04FF4C7
:100E500080513148FFF73AFB4FF4C870FFF756FE58
:100E60002C4880692D49886108468069A0F5C870C2
:100E70002B49886141E04FF480512748FFF728FB58
:100E80002749098B88B2FFF741FE36E04FF48051C5
:100E90002148FFF71BFB4FF4C870FFF737FE2CE02B
:100EA0004FF480511C48FFF713FB00201D490860D8
:100EB0000EE01B481B49096850F821001A490968CF
:100EC00008441949086017480068401C1549086023
:100ED000144800680728ECD31349098844F62062B7
:100EE000511AA1F5486188B2FFF710FE00200749AA
:100EF00008600D49086000E000BF00BF0121024802
:100F000000F044F810BD0000000800403000002050
:100F10000C010020C00000200008014088000020D3
:100F2000A40000203C000020380000207FB50546CA
:100F30000C4601210420FFF755FBADF80850ADF831
:100F400004400020ADF80A00ADF8060001A90E48E3
:100F500000F056F8012211460B4800F037F81E2029
:100F60008DF8000001208DF8010000208DF80200AE
:100F700001208DF803006846FFF7CCFA01210248F2
:100F800000F007F87FBD000000080040CA4302825D
:100F9000704721B1028842F00102028004E0028819
:100FA0004FF6FE731A400280704730B502460020AB
:100FB00000230024158A05EA0103958905EA010446
:100FC00013B10CB1012000E0002030BD1AB18389BB
:100FD0000B43838102E083898B4383817047000048
:100FE00010B5064800684FF47A71B0FBF1F084B296
:100FF00021461320FFF79AFF10BD000000000020DB
:10100000002202881D4B98420ED01D4B98420BD0F7
:10101000B0F1804F08D01B4B984205D01A4B984234
:1010200002D01A4B984204D14FF68F731A404B8866
:101030001A43174B984207D0164B984204D04FF6EC
:10104000FF431A40CB881A4302808B8883850B8824
:1010500003850A4B98420BD0094B984208D00E4B9F
:10106000984205D00D4B984202D00D4B984201D1C9
:101070000B7A03860123838270470000002C014015
:10108000003401400004004000080040000C004013
:1010900000100040001400400040014000440140A6
:1010A0000048014005E0FFF7B3FC4FF4FA7000F090
:1010B0007FF9F8E770B54C48008800F02000002860
:1010C0007DD04948001D0088C4B24848006800210E
:1010D000474B0CCB821A61EB03010020D2F10702CF
:1010E000884102D200204349088042480188008894
:1010F000401C404A10804048445410460088112843
:101100006CD13A4800683A490968401A3B4908706E
:101110003B48006800F10100394908603648007812
:101120003549497801F0070100EB01203549088075
:10113000314880784FEA80604FEA50502E49497814
:1011400000EBE1002F4948802B4800794FEAC0703E
:101150004FEA50502849C97800EB81002649897828
:1011600000EBA1102749C880234840794FEA00705E
:101170004FEA50502049097900EB610021498880ED
:101180001D4840794FEAA01008811B484079C0F300
:10119000011048814FF00000114608801348006894
:1011A0004FF00001124A03C217480068174908604F
:1011B0000E48006800F0B0FA0646154900E012E05B
:1011C00000F094F9054611480168284600F0EAFB52
:1011D0000D49086008460068FFF78EFA034800686A
:1011E0000021034A03C270BD003801402C000020DA
:1011F00078000020720000206001002070000020B4
:101200006C000020DC000020840000208000002012
:1012100000007A4401F40072B2F5007F00D100BFF3
:10122000CA430280704721B1828942F40052828110
:1012300004E082894DF6FF731A4082817047F0B551
:101240000346002400260025002040F66A17B94214
:1012500000D100BF1846C1F3421401F01F06012758
:1012600007FA06F5012C01D10C3004E0022C01D163
:10127000103000E014301AB107682F43076002E015
:101280000768AF430760F0BD2DE9F04786B005461B
:101290000E460024A24600BFA1460027B08900B137
:1012A00000BF2F462C8A4CF6FF700440F0880443A0
:1012B0002C82AC894EF6F3100440B0883189084383
:1012C000718908430443AC81AC8A4FF6FF40044067
:1012D000B0890443AC8201A8FFF7A4F91F488742F4
:1012E00002D1DDF810A001E0DDF80CA0A88900F41F
:1012F000004040B10AEBCA0000EB0A103168490017
:10130000B0FBF1F807E00AEBCA0000EB0A10316805
:101310008900B0FBF1F86420B8FBF0F0040120096B
:10132000642101FB1089A88900F4004040B13220FB
:1013300000EBC900B0FBF1F000F00700044308E047
:10134000322000EB09106421B0FBF1F000F00F0037
:1013500004432C8106B0BDE8F0870000003801404E
:1013600010B5FEF77BFF10BD00BFFEE710B56FF0B4
:101370000400FFF7F6FB0A4800680A49B0FBF1F0E9
:10138000094908700846007800EB4001C1EBC01025
:101390004FF6FF7101EAC0000449088010BD00004B
:1013A0000000002000127A00280000202A000020FF
:1013B0000146114A12884A434FF0E0235A61002245
:1013C0009A611A46126942F001021A6100BF4FF099
:1013D000E022106900F001021AB100F48032002A04
:1013E000F5D04FF0E022126922F001024FF0E02325
:1013F0001A6100229A6170472A00002010B5FFF799
:10140000A3FBFEF71EFFFFF74DFE002010BD0000FE
:1014100090EA010F48BF81F0004100F1CA82421AF0
:101420003CBF801A89184FEAD0524FF07F4C1CEA1B
:10143000410FA2EBD15318BF9CEA026F00F03B8032
:101440004FF0004C4CEA00204CEA012121FA03FC49
:1014500010EB0C0C1ED202F1FF325FEA1C2040EBB5
:10146000C25038BF70471CF07F0F4FEA400C18BFC6
:10147000BCF17F4F38BF7047C3F12003994008BFCC
:1014800020F00100BCF17F4F38BF7047A0F1C04091
:1014900000F051BA4FEA3C00000A40EBC25028BFAE
:1014A0001CF0FF0F4FEA400CE6D018BFBCF17F4F95
:1014B00038BF7047EAE79CEA026F05D010EA5C0F7C
:1014C00008BF00F00040704710B500F0EEF900BF13
:1014D00064FBBE3E401058BFC0F14040491058BFA9
:1014E000C1F140418142EFF3008070474FF47F0C1F
:1014F0001CEAD0121EBF1CEAD11392EA0C0F93EA29
:101500000C0F00F0858090EA010F48BF42F4807212
:1015100040F4000C41F400002CF07F4120F07F40AB
:1015200000B58142A2EB03020FF2081CACEB504E57
:10153000C0F100009EF800E04FEA4E0E00FB0EFCEA
:1015400038BF49004FEA2C1C02F5FA020CFB0EF3DF
:101550004FEACE1E4FEA112C4FEAC1210EEB635E1B
:1015600042EB22420EFB0CFC4FEA1C5300FB031122
:101570004FEA112C4FEA01310EFB0CFC4FEADC4C18
:1015800000FB0C11C14228BF09184CEB03335DF876
:1015900004EB10EB410143EBC250B2F57C0F38BFB6
:1015A000704729D512F0F00F1CBF00F1C04000F0C9
:1015B00000407047008182838485868788898B8C70
:1015C0008D8E8F919293959697999A9C9D9FA0A2AC
:1015D000A3A5A7A8AAACAEB0B2B3B5B7B9BCBEC0FC
:1015E000C2C5C7C9CCCED1D4D7D9DCDFE2E6E9EC9D
:1015F000F0F3F7FAFE0000004FEA400C0CF1807C9B
:10160000BCF17E4F28BF7047B0F1C04000F093B9E5
:1016100090EA010F0CEAD11348BF42F48072624590
:1016200038BF634507D213F47F0F16D080EA01005C
:1016300000F00040704710B500F037F9097EFC3E1D
:1016400000F005B880EA010000F00040704780EA31
:10165000010000F0004000F06EB912F47F0F04BFEB
:101660000248704780EA010000F065B90000C07FC1
:1016700041000B0ED3F19E0208D950F400034FEA4B
:10168000032323FA02F048BF4042704710B500F030
:101690000CF900BF49922480002070476FF000428F
:1016A00082EA200070470000C10DD1F19E0206DBE6
:1016B0004FEA002343F0004323FA02F07047004250
:1016C00007D54FEA4001B1F1FE4F02D24FF00000C2
:1016D000704710B500F0E9F8499224800020704767
:1016E0006FEA20007047000010F0004148BF404200
:1016F000B0FA80F310FA03F2C3F19D030BD051EA64
:10170000C35101EB1220530638BF704700F10100AE
:1017100008BF20F001007047B0FA80F310FA03F21E
:10172000C3F19D030AD0D90501EB1220530638BF3F
:10173000704700F1010008BF20F001007047000071
:1017400050EA010C00F113801CF5000F58BFBCF5E6
:10175000000F01D48842704707D710F5000F58BF1B
:1017600011F5000F15D488427047894270471CF567
:10177000000F04D5BCF5000FF7D5814270474FF03C
:10178000807C1CEB400F38BF1CEB410F01D2814223
:10179000704710B500F089F8922449004FF00050CE
:1017A0004FF08051FFF796BE4FF47F0C1CEAD01229
:1017B0001EBF1CEAD11392EA0C0F93EA0C0F00F043
:1017C000478090EA010F48BF42F480724FF0004C0E
:1017D0004CEA00204CEA012102EB0302A0FB0113BA
:1017E000A2F50002002918BF43F001035B0028BFE7
:1017F0004FEA330342EB22425FEA132C4CEBC25018
:101800002EBFBCEB436FB2F57C0F70474FEA036C01
:10181000BCF1004F08BF20F00100B2F57C0F38BFCB
:1018200070470BD582F0FF0212F5803FC8BF7047AA
:1018300000F1C040D8BF00F00040704700F5000C38
:101840005FEA4C0C48BF7047B0F1C04000F073B87D
:1018500090EA010F0CEAD11348BF42F4807262454E
:1018600038BF634504D280EA010000F000407047B1
:1018700010B500F01AF800BF8900013E00F007B86B
:1018800000F009B85FEA410C5FEA1C6C08D080EAFE
:10189000010000F050B85FEA400C5FEA1C6CF6D122
:1018A0004FF00040A0F5800070470EF1020E2EF0C0
:1018B000030E5EF8044B244204D44FEA4102B2F115
:1018C0007F4F11D84FEA4003B3F17F4F0CD80ED1B0
:1018D0004FEAD07CB2F17F4F0CEB4C0C0CF1020CB8
:1018E00008BF4CEBD17C04E04FF0080C01E04FEA5C
:1018F000D17C0CEB4C0324FA03F404F00704B4F19C
:10190000040C06D20EEB840CBDE810404CF0010C28
:101910006047DFE80CF0070802024FF00040A0F536
:10192000800010BD0846420018BFD2F1807288BF07
:1019300000F0004010BDFF2141EAD050C0057047C3
:1019400051EA000C00F113801CF5000F58BFBCF5E4
:10195000000F01D48142704707D711F5000F58BF1F
:1019600010F5000F15D481427047894270471CF56D
:10197000000F04D5BCF5000FF7D5884270474FF033
:10198000807C1CEB410F38BF1CEB400F01D288421A
:10199000704780EA010081EA000180EA0100FFF758
:1019A000F8BE000090EA010F48BF81F000413FF50A
:1019B00036AD421A04D882F00042A0EB0200114476
:1019C0004FEAD0524FF07F4C1CEA410FA2EBD153AB
:1019D00018BF9CEA026F4AD04FF0004C4CEA00203E
:1019E0004CEA012121FA03FCB0EB0C0C0FD412F0ED
:1019F000FE0F36D05FEA4C001DD5001240EBC250FE
:101A000038BF70471CF03F0F18BF70470BE0A2F1C2
:101A100001025FEA1C2040EBC25038BF70471CF047
:101A20007F0F18BF7047C3F12003994014BF401EB9
:101A300020F00100704780084FEA122308BF70476A
:101A4000B0FA80FCA2EB0C02CCF1280C60FA0CF08E
:101A500093EA122F04BF00EBC25070474FEAC370E5
:101A60007047130A5FEADC1008BF7047F6E79CEA8C
:101A7000026F04D010EA5C0F08BF0020704710B559
:101A8000FFF713FF40DFF63E81F000407047000093
:101A9000B01A00080000002088000000280100089B
:101AA000381B000888000020580700004401000887
:101AB00000A24A040000000000000000010203042C
:101AC00006070809000000000102030401020304E4
:101AD00006070809020406080000000000000000D4
:101AE00000000000000000000000000000000000F6
:101AF0000000000000000000000094069406940618
:101B00009406030003006C016C016C016C01010080
:101B100001000001000000000000000000000000C3
:101B200000000000000000000000000000000000B5
:081B30000000000000000000AD
:04000005080000ED02
:00000001FF
